{
    "contractName": "Pair",
    "abi": [
        {
            "inputs": [
                {
                    "internalType": "address",
                    "name": "_tokenA",
                    "type": "address"
                },
                {
                    "internalType": "address",
                    "name": "_tokenB",
                    "type": "address"
                }
            ],
            "stateMutability": "nonpayable",
            "type": "constructor"
        },
        {
            "inputs": [
                {
                    "internalType": "address",
                    "name": "spender",
                    "type": "address"
                },
                {
                    "internalType": "uint256",
                    "name": "allowance",
                    "type": "uint256"
                },
                {
                    "internalType": "uint256",
                    "name": "needed",
                    "type": "uint256"
                }
            ],
            "name": "ERC20InsufficientAllowance",
            "type": "error"
        },
        {
            "inputs": [
                {
                    "internalType": "address",
                    "name": "sender",
                    "type": "address"
                },
                {
                    "internalType": "uint256",
                    "name": "balance",
                    "type": "uint256"
                },
                {
                    "internalType": "uint256",
                    "name": "needed",
                    "type": "uint256"
                }
            ],
            "name": "ERC20InsufficientBalance",
            "type": "error"
        },
        {
            "inputs": [
                {
                    "internalType": "address",
                    "name": "approver",
                    "type": "address"
                }
            ],
            "name": "ERC20InvalidApprover",
            "type": "error"
        },
        {
            "inputs": [
                {
                    "internalType": "address",
                    "name": "receiver",
                    "type": "address"
                }
            ],
            "name": "ERC20InvalidReceiver",
            "type": "error"
        },
        {
            "inputs": [
                {
                    "internalType": "address",
                    "name": "sender",
                    "type": "address"
                }
            ],
            "name": "ERC20InvalidSender",
            "type": "error"
        },
        {
            "inputs": [
                {
                    "internalType": "address",
                    "name": "spender",
                    "type": "address"
                }
            ],
            "name": "ERC20InvalidSpender",
            "type": "error"
        },
        {
            "inputs": [],
            "name": "ReentrancyGuardReentrantCall",
            "type": "error"
        },
        {
            "inputs": [
                {
                    "internalType": "address",
                    "name": "token",
                    "type": "address"
                }
            ],
            "name": "SafeERC20FailedOperation",
            "type": "error"
        },
        {
            "anonymous": false,
            "inputs": [
                {
                    "indexed": true,
                    "internalType": "address",
                    "name": "owner",
                    "type": "address"
                },
                {
                    "indexed": true,
                    "internalType": "address",
                    "name": "spender",
                    "type": "address"
                },
                {
                    "indexed": false,
                    "internalType": "uint256",
                    "name": "value",
                    "type": "uint256"
                }
            ],
            "name": "Approval",
            "type": "event"
        },
        {
            "anonymous": false,
            "inputs": [
                {
                    "indexed": true,
                    "internalType": "address",
                    "name": "user",
                    "type": "address"
                },
                {
                    "indexed": false,
                    "internalType": "uint256",
                    "name": "amountA",
                    "type": "uint256"
                },
                {
                    "indexed": false,
                    "internalType": "uint256",
                    "name": "amountB",
                    "type": "uint256"
                },
                {
                    "indexed": false,
                    "internalType": "uint256",
                    "name": "lpBurned",
                    "type": "uint256"
                }
            ],
            "name": "LiquidityRemoved",
            "type": "event"
        },
        {
            "anonymous": false,
            "inputs": [
                {
                    "indexed": true,
                    "internalType": "address",
                    "name": "sender",
                    "type": "address"
                },
                {
                    "indexed": false,
                    "internalType": "uint256",
                    "name": "amountA",
                    "type": "uint256"
                },
                {
                    "indexed": false,
                    "internalType": "uint256",
                    "name": "amountB",
                    "type": "uint256"
                },
                {
                    "indexed": false,
                    "internalType": "uint256",
                    "name": "amountAOut",
                    "type": "uint256"
                },
                {
                    "indexed": false,
                    "internalType": "uint256",
                    "name": "amountBOut",
                    "type": "uint256"
                },
                {
                    "indexed": true,
                    "internalType": "address",
                    "name": "to",
                    "type": "address"
                }
            ],
            "name": "Swap",
            "type": "event"
        },
        {
            "anonymous": false,
            "inputs": [
                {
                    "indexed": true,
                    "internalType": "address",
                    "name": "from",
                    "type": "address"
                },
                {
                    "indexed": true,
                    "internalType": "address",
                    "name": "to",
                    "type": "address"
                },
                {
                    "indexed": false,
                    "internalType": "uint256",
                    "name": "value",
                    "type": "uint256"
                }
            ],
            "name": "Transfer",
            "type": "event"
        },
        {
            "anonymous": false,
            "inputs": [
                {
                    "indexed": true,
                    "internalType": "address",
                    "name": "user",
                    "type": "address"
                },
                {
                    "indexed": false,
                    "internalType": "uint256",
                    "name": "amountA",
                    "type": "uint256"
                },
                {
                    "indexed": false,
                    "internalType": "uint256",
                    "name": "amountB",
                    "type": "uint256"
                },
                {
                    "indexed": false,
                    "internalType": "uint256",
                    "name": "lpMinted",
                    "type": "uint256"
                }
            ],
            "name": "liquidityAdded",
            "type": "event"
        },
        {
            "inputs": [
                {
                    "internalType": "uint256",
                    "name": "inputAmount",
                    "type": "uint256"
                },
                {
                    "internalType": "uint256",
                    "name": "inputReserve",
                    "type": "uint256"
                },
                {
                    "internalType": "uint256",
                    "name": "outputReserve",
                    "type": "uint256"
                }
            ],
            "name": "IncludeSwapFee",
            "outputs": [
                {
                    "internalType": "uint256",
                    "name": "amountOut",
                    "type": "uint256"
                }
            ],
            "stateMutability": "pure",
            "type": "function"
        },
        {
            "inputs": [
                {
                    "internalType": "uint128",
                    "name": "amountA",
                    "type": "uint128"
                },
                {
                    "internalType": "uint128",
                    "name": "amountB",
                    "type": "uint128"
                }
            ],
            "name": "addLiquidity",
            "outputs": [
                {
                    "internalType": "uint256",
                    "name": "lpTokensMinted",
                    "type": "uint256"
                }
            ],
            "stateMutability": "nonpayable",
            "type": "function"
        },
        {
            "inputs": [
                {
                    "internalType": "address",
                    "name": "owner",
                    "type": "address"
                },
                {
                    "internalType": "address",
                    "name": "spender",
                    "type": "address"
                }
            ],
            "name": "allowance",
            "outputs": [
                {
                    "internalType": "uint256",
                    "name": "",
                    "type": "uint256"
                }
            ],
            "stateMutability": "view",
            "type": "function"
        },
        {
            "inputs": [
                {
                    "internalType": "address",
                    "name": "spender",
                    "type": "address"
                },
                {
                    "internalType": "uint256",
                    "name": "value",
                    "type": "uint256"
                }
            ],
            "name": "approve",
            "outputs": [
                {
                    "internalType": "bool",
                    "name": "",
                    "type": "bool"
                }
            ],
            "stateMutability": "nonpayable",
            "type": "function"
        },
        {
            "inputs": [
                {
                    "internalType": "address",
                    "name": "account",
                    "type": "address"
                }
            ],
            "name": "balanceOf",
            "outputs": [
                {
                    "internalType": "uint256",
                    "name": "",
                    "type": "uint256"
                }
            ],
            "stateMutability": "view",
            "type": "function"
        },
        {
            "inputs": [],
            "name": "decimals",
            "outputs": [
                {
                    "internalType": "uint8",
                    "name": "",
                    "type": "uint8"
                }
            ],
            "stateMutability": "view",
            "type": "function"
        },
        {
            "inputs": [],
            "name": "getReserves",
            "outputs": [
                {
                    "internalType": "uint128",
                    "name": "",
                    "type": "uint128"
                },
                {
                    "internalType": "uint128",
                    "name": "",
                    "type": "uint128"
                }
            ],
            "stateMutability": "view",
            "type": "function"
        },
        {
            "inputs": [],
            "name": "name",
            "outputs": [
                {
                    "internalType": "string",
                    "name": "",
                    "type": "string"
                }
            ],
            "stateMutability": "view",
            "type": "function"
        },
        {
            "inputs": [
                {
                    "internalType": "uint256",
                    "name": "lpTokensAmount",
                    "type": "uint256"
                }
            ],
            "name": "removeLiquidity",
            "outputs": [
                {
                    "internalType": "uint256",
                    "name": "amountA",
                    "type": "uint256"
                },
                {
                    "internalType": "uint256",
                    "name": "amountB",
                    "type": "uint256"
                }
            ],
            "stateMutability": "nonpayable",
            "type": "function"
        },
        {
            "inputs": [],
            "name": "reserveA",
            "outputs": [
                {
                    "internalType": "uint128",
                    "name": "",
                    "type": "uint128"
                }
            ],
            "stateMutability": "view",
            "type": "function"
        },
        {
            "inputs": [],
            "name": "reserveB",
            "outputs": [
                {
                    "internalType": "uint128",
                    "name": "",
                    "type": "uint128"
                }
            ],
            "stateMutability": "view",
            "type": "function"
        },
        {
            "inputs": [
                {
                    "internalType": "uint128",
                    "name": "amountAOut",
                    "type": "uint128"
                },
                {
                    "internalType": "uint128",
                    "name": "amountBOut",
                    "type": "uint128"
                },
                {
                    "internalType": "address",
                    "name": "to",
                    "type": "address"
                }
            ],
            "name": "swap",
            "outputs": [],
            "stateMutability": "nonpayable",
            "type": "function"
        },
        {
            "inputs": [],
            "name": "symbol",
            "outputs": [
                {
                    "internalType": "string",
                    "name": "",
                    "type": "string"
                }
            ],
            "stateMutability": "view",
            "type": "function"
        },
        {
            "inputs": [],
            "name": "tokenA",
            "outputs": [
                {
                    "internalType": "contract IERC20",
                    "name": "",
                    "type": "address"
                }
            ],
            "stateMutability": "view",
            "type": "function"
        },
        {
            "inputs": [],
            "name": "tokenB",
            "outputs": [
                {
                    "internalType": "contract IERC20",
                    "name": "",
                    "type": "address"
                }
            ],
            "stateMutability": "view",
            "type": "function"
        },
        {
            "inputs": [],
            "name": "totalSupply",
            "outputs": [
                {
                    "internalType": "uint256",
                    "name": "",
                    "type": "uint256"
                }
            ],
            "stateMutability": "view",
            "type": "function"
        },
        {
            "inputs": [
                {
                    "internalType": "address",
                    "name": "to",
                    "type": "address"
                },
                {
                    "internalType": "uint256",
                    "name": "value",
                    "type": "uint256"
                }
            ],
            "name": "transfer",
            "outputs": [
                {
                    "internalType": "bool",
                    "name": "",
                    "type": "bool"
                }
            ],
            "stateMutability": "nonpayable",
            "type": "function"
        },
        {
            "inputs": [
                {
                    "internalType": "address",
                    "name": "from",
                    "type": "address"
                },
                {
                    "internalType": "address",
                    "name": "to",
                    "type": "address"
                },
                {
                    "internalType": "uint256",
                    "name": "value",
                    "type": "uint256"
                }
            ],
            "name": "transferFrom",
            "outputs": [
                {
                    "internalType": "bool",
                    "name": "",
                    "type": "bool"
                }
            ],
            "stateMutability": "nonpayable",
            "type": "function"
        }
    ],
    "bytecode": "60c0604052346103f3576117ae6040813803918261001c816103f7565b9384928339810103126103f35761003e60206100378361041c565b920161041c565b9061004960406103f7565b9160128352712634b8bab4b234ba3ca837b7b62a37b5b2b760711b602084015261007360406103f7565b600381526213141560ea1b602082015283519092906001600160401b03811161030457600354600181811c911680156103e9575b60208210146102e657601f8111610386575b50602094601f8211600114610323579481929394955f92610318575b50508160011b915f199060031b1c1916176003555b82516001600160401b03811161030457600454600181811c911680156102fa575b60208210146102e657601f8111610283575b506020601f821160011461022057819293945f92610215575b50508160011b915f199060031b1c1916176004555b60016005556001600160a01b031680151580610203575b156101cf576080526001600160a01b031660a05260405161137d908161043182396080518181816102bc015281816105130152818161088301528181610ae30152610cb4015260a0518181816102e70152818161054a01528181610798015281816108d80152610ab10152f35b60405162461bcd60e51b815260206004820152600c60248201526b5a65726f206164647265737360a01b6044820152606490fd5b506001600160a01b0382161515610162565b015190505f80610136565b601f1982169060045f52805f20915f5b81811061026b57509583600195969710610253575b505050811b0160045561014b565b01515f1960f88460031b161c191690555f8080610245565b9192602060018192868b015181550194019201610230565b60045f527f8a35acfbc15ff81a39ae7d344fd709f28e8600b4aa8c65c6b64bfe7fe36bd19b601f830160051c810191602084106102dc575b601f0160051c01905b8181106102d1575061011d565b5f81556001016102c4565b90915081906102bb565b634e487b7160e01b5f52602260045260245ffd5b90607f169061010b565b634e487b7160e01b5f52604160045260245ffd5b015190505f806100d5565b601f1982169560035f52805f20915f5b88811061036e57508360019596979810610356575b505050811b016003556100ea565b01515f1960f88460031b161c191690555f8080610348565b91926020600181928685015181550194019201610333565b60035f527fc2575a0e9e593c00f959f8c92f12db2869c3395a3b0502d05e2516446f71f85b601f830160051c810191602084106103df575b601f0160051c01905b8181106103d457506100b9565b5f81556001016103c7565b90915081906103be565b90607f16906100a7565b5f80fd5b6040519190601f01601f191682016001600160401b0381118382101761030457604052565b51906001600160a01b03821682036103f35756fe6080806040526004361015610012575f80fd5b5f3560e01c90816306fdde0314610d93575080630902f1ac14610d65578063095ea7b314610ce35780630fc63d1014610c9f57806318160ddd14610c8257806319e36f3b14610c6257806323b872dd14610b83578063313ce56714610b685780633fb2776c146107c75780635f64b55b1461078357806370a082311461074c5780638cbd0e9c146104c557806395d89b41146103c15780639c8f9f23146101b9578063a9059cbb14610188578063bbac70181461015c578063dc5fa6c5146101365763dd62ed3e146100e2575f80fd5b34610132576040366003190112610132576100fb610e75565b610103610e8b565b6001600160a01b039182165f908152600160209081526040808320949093168252928352819020549051908152f35b5f80fd5b34610132575f3660031901126101325760206001600160801b0360065416604051908152f35b34610132576060366003190112610132576020610180604435602435600435610fa2565b604051908152f35b34610132576040366003190112610132576101ae6101a4610e75565b6024359033611090565b602060405160018152f35b34610132576020366003190112610132576004356101d5611127565b801561013257600254600654916001600160801b0383169260801c90610212610207846102028785610f44565b610f57565b936102028484610f44565b916001600160801b03841115806103b0575b1561038057331561036d57335f525f60205260405f20548281106103525761029b604096846001600160801b0393335f525f60205203885f205584600254036002555f88518681527fddf252ad1be2c89b69c2b068fc378daa952ba7f163c4a11628f55a4df523b3ef60203392a382871690610f03565b916102ab82199183871690610f03565b60801b169116176006556102e083337f0000000000000000000000000000000000000000000000000000000000000000611147565b61030b82337f0000000000000000000000000000000000000000000000000000000000000000611147565b835190838252826020830152848201527f1dc8bb69df2b8e91fbdcbfcf93d951b3f0000f085a95fe3f7946d6161439245d60603392a2600160055582519182526020820152f35b905063391434e360e21b5f523360045260245260445260645ffd5b634b637e8f60e11b5f525f60045260245ffd5b60405162461bcd60e51b81526020600482015260086024820152674f766572666c6f7760c01b6044820152606490fd5b506001600160801b03831115610224565b34610132575f366003190112610132576040515f6004548060011c906001811680156104bb575b6020831081146104a7578285529081156104835750600114610425575b6104218361041581850382610ecd565b60405191829182610e4b565b0390f35b91905060045f527f8a35acfbc15ff81a39ae7d344fd709f28e8600b4aa8c65c6b64bfe7fe36bd19b915f905b80821061046957509091508101602001610415610405565b919260018160209254838588010152019101909291610451565b60ff191660208086019190915291151560051b840190910191506104159050610405565b634e487b7160e01b5f52602260045260245ffd5b91607f16916103e8565b34610132576040366003190112610132576104de610ea1565b6104e6610eb7565b906104ef611127565b6001600160801b0381168015158061073a575b156106ff57600254926105378230337f0000000000000000000000000000000000000000000000000000000000000000611189565b6001600160801b0381169361056e8530337f0000000000000000000000000000000000000000000000000000000000000000611189565b806106b857506105866105818584610f44565b6111cd565b925b831561067b576105c96001600160801b036105a860065493828516610f75565b16926fffffffffffffffffffffffffffffffff19928316841760801c610f75565b60801b16176006553315610668576020926105e683600254610f95565b600255335f525f845260405f208381540190556040518381525f7fddf252ad1be2c89b69c2b068fc378daa952ba7f163c4a11628f55a4df523b3ef863393a3604051918252838201528160408201527fa8b9b1ba428d2747a6a851709fb7492b188527c00891ceb6888a061d56a6aec660603392a26001600555604051908152f35b63ec442f0560e01b5f525f60045260245ffd5b60405162461bcd60e51b815260206004820152601560248201527404c5020616d6f756e74206d757374206265203e203605c1b6044820152606490fd5b6106f06106c58285610f44565b6106e66106df600654926001600160801b03841690610f57565b9388610f44565b9060801c90610f57565b90818082109118021892610588565b60405162461bcd60e51b815260206004820152601360248201527204d757374206265206d6f7265207468616e203606c1b6044820152606490fd5b506001600160801b0383161515610502565b34610132576020366003190112610132576001600160a01b0361076d610e75565b165f525f602052602060405f2054604051908152f35b34610132575f366003190112610132576040517f00000000000000000000000000000000000000000000000000000000000000006001600160a01b03168152602090f35b34610132576060366003190112610132576107e0610ea1565b6107e8610eb7565b6044356001600160a01b0381169283820361013257610805611127565b6001600160801b03811690811580158091610b56575b1561013257851561013257600654916001600160801b0383169260801c9183851080610b44575b1561013257308814610b0c57610adc575b6001600160801b038616948580610aab575b50506040516370a0823160e01b8152306004820152906020826024817f00000000000000000000000000000000000000000000000000000000000000006001600160a01b03165afa918215610a6c575f92610a77575b506040516370a0823160e01b8152306004820152916020836024817f00000000000000000000000000000000000000000000000000000000000000006001600160a01b03165afa928315610a6c575f93610a38575b506001600160801b036109238387610f03565b16811115610a2f576001600160801b036109406109479387610f03565b1690610f37565b955b6001600160801b0361095b8285610f03565b16821115610a25576109406001600160801b039161097894610f03565b905b8415801590610a1c575b156109d757826109949186610fa2565b506040519384526020840152604083015260608201527fd78ad95fa46c994b6551d0da85fc275fe613ce37657fb8d5e3d130840159d82260803392a36001600555005b60405162461bcd60e51b815260206004820152601f60248201527f537761703a20494e53554646494349454e545f494e5055545f414d4f554e54006044820152606490fd5b50811515610984565b5050505f9061097a565b50505f95610949565b9092506020813d602011610a64575b81610a5460209383610ecd565b8101031261013257519189610910565b3d9150610a47565b6040513d5f823e3d90fd5b9091506020813d602011610aa3575b81610a9360209383610ecd565b81010312610132575190886108bb565b3d9150610a86565b610ad5917f0000000000000000000000000000000000000000000000000000000000000000611147565b8785610865565b610b0784867f0000000000000000000000000000000000000000000000000000000000000000611147565b610853565b60405162461bcd60e51b815260206004820152601060248201526f537761703a20494e56414c49445f544f60801b6044820152606490fd5b50826001600160801b03881610610842565b506001600160801b038516151561081b565b34610132575f36600319011261013257602060405160128152f35b3461013257606036600319011261013257610b9c610e75565b610ba4610e8b565b6001600160a01b0382165f818152600160209081526040808320338452909152902054909260443592915f198110610be2575b506101ae9350611090565b838110610c47578415610c34573315610c21576101ae945f52600160205260405f2060018060a01b0333165f526020528360405f209103905584610bd7565b634a1406b160e11b5f525f60045260245ffd5b63e602df0560e01b5f525f60045260245ffd5b8390637dc7a0d960e11b5f523360045260245260445260645ffd5b34610132575f36600319011261013257602060065460801c604051908152f35b34610132575f366003190112610132576020600254604051908152f35b34610132575f366003190112610132576040517f00000000000000000000000000000000000000000000000000000000000000006001600160a01b03168152602090f35b3461013257604036600319011261013257610cfc610e75565b602435903315610c34576001600160a01b0316908115610c2157335f52600160205260405f20825f526020528060405f20556040519081527f8c5be1e5ebec7d5bd14f71427d1e84f3dd0314c0f7b2291e5b200ac8c7c3b92560203392a3602060405160018152f35b34610132575f3660031901126101325760406006548151906001600160801b038116825260801c6020820152f35b34610132575f366003190112610132575f6003548060011c90600181168015610e41575b6020831081146104a7578285529081156104835750600114610de3576104218361041581850382610ecd565b91905060035f527fc2575a0e9e593c00f959f8c92f12db2869c3395a3b0502d05e2516446f71f85b915f905b808210610e2757509091508101602001610415610405565b919260018160209254838588010152019101909291610e0f565b91607f1691610db7565b602060409281835280519182918282860152018484015e5f828201840152601f01601f1916010190565b600435906001600160a01b038216820361013257565b602435906001600160a01b038216820361013257565b600435906001600160801b038216820361013257565b602435906001600160801b038216820361013257565b90601f8019910116810190811067ffffffffffffffff821117610eef57604052565b634e487b7160e01b5f52604160045260245ffd5b906001600160801b03809116911603906001600160801b038211610f2357565b634e487b7160e01b5f52601160045260245ffd5b91908203918211610f2357565b81810292918115918404141715610f2357565b8115610f61570490565b634e487b7160e01b5f52601260045260245ffd5b906001600160801b03809116911601906001600160801b038211610f2357565b91908201809211610f2357565b811592831580611087575b15611042576103e78202918083046103e71490151715610f2357610fd19082610f44565b926103e883029283046103e8141715610f2357610fed91610f95565b610ff78183610f57565b156110085761100591610f57565b90565b60405162461bcd60e51b815260206004820152601260248201527116995c9bc81bdd5d1c1d5d08185b5bdd5b9d60721b6044820152606490fd5b60405162461bcd60e51b815260206004820152601f60248201527f5265736572766573206d7573742062652067726561746572207468616e2030006044820152606490fd5b50801515610fad565b6001600160a01b031690811561036d576001600160a01b031691821561066857815f525f60205260405f205481811061110e57817fddf252ad1be2c89b69c2b068fc378daa952ba7f163c4a11628f55a4df523b3ef92602092855f525f84520360405f2055845f525f825260405f20818154019055604051908152a3565b8263391434e360e21b5f5260045260245260445260645ffd5b600260055414611138576002600555565b633ee5aeb560e01b5f5260045ffd5b60405163a9059cbb60e01b60208201526001600160a01b03909216602483015260448083019390935291815261118791611182606483610ecd565b6112ef565b565b6040516323b872dd60e01b60208201526001600160a01b03928316602482015292909116604483015260648083019390935291815261118791611182608483610ecd565b600181111561100557806001600160801b8210156112de575b600482600160401b6112909410156112d1575b6401000000008110156112c4575b620100008110156112b7575b6101008110156112ab575b601081101561129f575b1015611297575b60030260011c61123f8184610f57565b0160011c61124d8184610f57565b0160011c61125b8184610f57565b0160011c6112698184610f57565b0160011c6112778184610f57565b0160011c6112858184610f57565b0160011c8092610f57565b8111900390565b60011b61122f565b811c9160021b91611228565b60081c91811b9161121e565b60101c9160081b91611213565b60201c9160101b91611207565b60401c9160201b916111f9565b5050608081901c600160401b6111e6565b905f602091828151910182855af115610a6c575f513d61133e57506001600160a01b0381163b155b61131e5750565b635274afe760e01b5f9081526001600160a01b0391909116600452602490fd5b6001141561131756fea264697066735822122022e4ab72d36bf04cf1e72f671f72cb878e68e2b9763d0ba3ae87860574a8454764736f6c634300081d0033",
    "sourcePath": "/home/jakub/Documents/Solidity/SimpleDEX/src/Pair.sol",
    "compiler": {
        "name": "solc",
        "version": "0.8.29+commit.ab55807c"
    },
    "functionHashes": {
        "IncludeSwapFee(uint256,uint256,uint256)": "bbac7018",
        "addLiquidity(uint128,uint128)": "8cbd0e9c",
        "allowance(address,address)": "dd62ed3e",
        "approve(address,uint256)": "095ea7b3",
        "balanceOf(address)": "70a08231",
        "decimals()": "313ce567",
        "getReserves()": "0902f1ac",
        "name()": "06fdde03",
        "removeLiquidity(uint256)": "9c8f9f23",
        "reserveA()": "dc5fa6c5",
        "reserveB()": "19e36f3b",
        "swap(uint128,uint128,address)": "3fb2776c",
        "symbol()": "95d89b41",
        "tokenA()": "0fc63d10",
        "tokenB()": "5f64b55b",
        "totalSupply()": "18160ddd",
        "transfer(address,uint256)": "a9059cbb",
        "transferFrom(address,address,uint256)": "23b872dd"
    },
    "gasEstimates": {
        "creation": {
            "codeDepositCost": "997800",
            "executionCost": "infinite",
            "totalCost": "infinite"
        },
        "external": {
            "IncludeSwapFee(uint256,uint256,uint256)": "infinite",
            "addLiquidity(uint128,uint128)": "infinite",
            "allowance(address,address)": "2944",
            "approve(address,uint256)": "24347",
            "balanceOf(address)": "2625",
            "decimals()": "307",
            "getReserves()": "2320",
            "name()": "infinite",
            "removeLiquidity(uint256)": "infinite",
            "reserveA()": "2626",
            "reserveB()": "2372",
            "swap(uint128,uint128,address)": "infinite",
            "symbol()": "infinite",
            "tokenA()": "infinite",
            "tokenB()": "infinite",
            "totalSupply()": "2344",
            "transfer(address,uint256)": "51062",
            "transferFrom(address,address,uint256)": "75589"
        },
        "internal": {
            "updateReserves(uint128,uint128)": "infinite"
        }
    }
}